{
  "_format": "hh-sol-artifact-1",
  "contractName": "Sacd",
  "sourceName": "contracts/Sacd.sol",
  "abi": [
    {
      "inputs": [],
      "stateMutability": "nonpayable",
      "type": "constructor"
    },
    {
      "inputs": [
        {
          "internalType": "address",
          "name": "asset",
          "type": "address"
        },
        {
          "internalType": "uint256",
          "name": "tokenId",
          "type": "uint256"
        }
      ],
      "name": "InvalidTokenId",
      "type": "error"
    },
    {
      "inputs": [
        {
          "internalType": "address",
          "name": "addr",
          "type": "address"
        }
      ],
      "name": "Unauthorized",
      "type": "error"
    },
    {
      "inputs": [],
      "name": "ZeroAddress",
      "type": "error"
    },
    {
      "anonymous": false,
      "inputs": [
        {
          "indexed": true,
          "internalType": "address",
          "name": "asset",
          "type": "address"
        },
        {
          "indexed": true,
          "internalType": "uint256",
          "name": "tokenId",
          "type": "uint256"
        },
        {
          "indexed": false,
          "internalType": "uint256",
          "name": "permissions",
          "type": "uint256"
        },
        {
          "indexed": true,
          "internalType": "address",
          "name": "grantee",
          "type": "address"
        },
        {
          "indexed": false,
          "internalType": "uint256",
          "name": "expiration",
          "type": "uint256"
        },
        {
          "indexed": false,
          "internalType": "string",
          "name": "source",
          "type": "string"
        }
      ],
      "name": "PermissionsSet",
      "type": "event"
    },
    {
      "inputs": [
        {
          "internalType": "address",
          "name": "asset",
          "type": "address"
        },
        {
          "internalType": "uint256",
          "name": "tokenId",
          "type": "uint256"
        },
        {
          "internalType": "address",
          "name": "grantee",
          "type": "address"
        },
        {
          "internalType": "uint256",
          "name": "permissions",
          "type": "uint256"
        }
      ],
      "name": "getPermissions",
      "outputs": [
        {
          "internalType": "uint256",
          "name": "",
          "type": "uint256"
        }
      ],
      "stateMutability": "view",
      "type": "function"
    },
    {
      "inputs": [
        {
          "internalType": "address",
          "name": "asset",
          "type": "address"
        },
        {
          "internalType": "uint256",
          "name": "tokenId",
          "type": "uint256"
        },
        {
          "internalType": "address",
          "name": "grantee",
          "type": "address"
        },
        {
          "internalType": "uint8",
          "name": "permissionIndex",
          "type": "uint8"
        }
      ],
      "name": "hasPermission",
      "outputs": [
        {
          "internalType": "bool",
          "name": "",
          "type": "bool"
        }
      ],
      "stateMutability": "view",
      "type": "function"
    },
    {
      "inputs": [
        {
          "internalType": "address",
          "name": "asset",
          "type": "address"
        },
        {
          "internalType": "uint256",
          "name": "tokenId",
          "type": "uint256"
        },
        {
          "internalType": "address",
          "name": "grantee",
          "type": "address"
        },
        {
          "internalType": "uint256",
          "name": "permissions",
          "type": "uint256"
        }
      ],
      "name": "hasPermissions",
      "outputs": [
        {
          "internalType": "bool",
          "name": "",
          "type": "bool"
        }
      ],
      "stateMutability": "view",
      "type": "function"
    },
    {
      "inputs": [
        {
          "internalType": "address",
          "name": "asset",
          "type": "address"
        },
        {
          "internalType": "uint256",
          "name": "tokenId",
          "type": "uint256"
        }
      ],
      "name": "onTransfer",
      "outputs": [],
      "stateMutability": "nonpayable",
      "type": "function"
    },
    {
      "inputs": [
        {
          "internalType": "address",
          "name": "asset",
          "type": "address"
        },
        {
          "internalType": "uint256",
          "name": "tokenId",
          "type": "uint256"
        },
        {
          "internalType": "uint256",
          "name": "version",
          "type": "uint256"
        },
        {
          "internalType": "address",
          "name": "grantee",
          "type": "address"
        }
      ],
      "name": "permissionRecords",
      "outputs": [
        {
          "internalType": "uint256",
          "name": "permissions",
          "type": "uint256"
        },
        {
          "internalType": "uint256",
          "name": "expiration",
          "type": "uint256"
        },
        {
          "internalType": "string",
          "name": "source",
          "type": "string"
        }
      ],
      "stateMutability": "view",
      "type": "function"
    },
    {
      "inputs": [
        {
          "internalType": "address",
          "name": "asset",
          "type": "address"
        },
        {
          "internalType": "uint256",
          "name": "tokenId",
          "type": "uint256"
        },
        {
          "internalType": "address",
          "name": "grantee",
          "type": "address"
        },
        {
          "internalType": "uint256",
          "name": "permissions",
          "type": "uint256"
        },
        {
          "internalType": "uint256",
          "name": "expiration",
          "type": "uint256"
        },
        {
          "internalType": "string",
          "name": "source",
          "type": "string"
        }
      ],
      "name": "setPermissions",
      "outputs": [],
      "stateMutability": "nonpayable",
      "type": "function"
    },
    {
      "inputs": [
        {
          "internalType": "address",
          "name": "asset",
          "type": "address"
        },
        {
          "internalType": "uint256",
          "name": "tokenId",
          "type": "uint256"
        }
      ],
      "name": "tokenIdToVersion",
      "outputs": [
        {
          "internalType": "uint256",
          "name": "version",
          "type": "uint256"
        }
      ],
      "stateMutability": "view",
      "type": "function"
    }
  ],
  "bytecode": "0x608060405234801561001057600080fd5b50610c98806100206000396000f3fe608060405234801561001057600080fd5b506004361061007d5760003560e01c806368233c611161005b57806368233c61146100e3578063e711f33914610104578063e81e9b6414610119578063eba579281461012c57600080fd5b806315e7d96b1461008257806316bc016c146100ad57806348eb48f5146100d0575b600080fd5b61009561009036600461082f565b610154565b6040516100a493929190610879565b60405180910390f35b6100c06100bb3660046108d7565b610217565b60405190151581526020016100a4565b6100c06100de36600461091f565b61033c565b6100f66100f13660046108d7565b610472565b6040519081526020016100a4565b61011761011236600461096d565b610594565b005b610117610127366004610a22565b6107b6565b6100f661013a366004610a22565b600060208181529281526040808220909352908152205481565b6001602081815260009586526040808720825294865284862081529285528385209092528352912080549181015460028201805491929161019490610a4e565b80601f01602080910402602001604051908101604052809291908181526020018280546101c090610a4e565b801561020d5780601f106101e25761010080835404028352916020019161020d565b820191906000526020600020905b8154815290600101906020018083116101f057829003601f168201915b5050505050905083565b6001600160a01b0380851660008181526020818152604080832088845282528083205493835260018083528184208985528352818420858552835281842095881684529482528083208151606081018352815481529581015492860192909252600282018054939586949093928401919061029190610a4e565b80601f01602080910402602001604051908101604052809291908181526020018280546102bd90610a4e565b801561030a5780601f106102df5761010080835404028352916020019161030a565b820191906000526020600020905b8154815290600101906020018083116102ed57829003601f168201915b50505050508152505090504281602001511161032b57600092505050610334565b51831683149150505b949350505050565b6001600160a01b038085166000818152602081815260408083208884528252808320549383526001808352818420898552835281842085855283528184209588168452948252808320815160608101835281548152958101549286019290925260028201805493958694909392840191906103b690610a4e565b80601f01602080910402602001604051908101604052809291908181526020018280546103e290610a4e565b801561042f5780601f106104045761010080835404028352916020019161042f565b820191906000526020600020905b81548152906001019060200180831161041257829003601f168201915b50505050508152505090504281602001511161045057600092505050610334565b61045b846002610a9e565b9051600360ff9092161c8116149695505050505050565b6001600160a01b038085166000818152602081815260408083208884528252808320549383526001808352818420898552835281842085855283528184209588168452948252808320815160608101835281548152958101549286019290925260028201805493958694909392840191906104ec90610a4e565b80601f016020809104026020016040519081016040528092919081815260200182805461051890610a4e565b80156105655780601f1061053a57610100808354040283529160200191610565565b820191906000526020600020905b81548152906001019060200180831161054857829003601f168201915b50505050508152505090504281602001511161058657600092505050610334565b518316915050949350505050565b6040516331a9108f60e11b8152600481018790526001600160a01b03881690636352211e90602401602060405180830381865afa9250505080156105f5575060408051601f3d908101601f191682019092526105f291810190610ac1565b60015b61062957604051631912ea5160e01b81526001600160a01b0388166004820152602481018790526044015b60405180910390fd5b6001600160a01b038116331480159061064b57506001600160a01b0388163314155b1561066b5760405163472511eb60e11b8152336004820152602401610620565b6001600160a01b0386166106925760405163d92e233d60e01b815260040160405180910390fd5b6001600160a01b0388166000908152602081815260408083208a84528252918290205482516060810184528881528083018890528351601f87018490048402810184018552868152919390929083019190879087908190840183828082843760009201829052509390945250506001600160a01b03808d1682526001602081815260408085208f865282528085208886528252808520938e1685529281529282902085518155928501519083015583015190915060028201906107559082610b4c565b50905050866001600160a01b0316888a6001600160a01b03167f948fe417941bab89f81888f9039015a1da93ff8cbe034f5615f7bf35679de7db898989896040516107a39493929190610c0c565b60405180910390a4505050505050505050565b336001600160a01b038316146107e15760405163472511eb60e11b8152336004820152602401610620565b6001600160a01b038216600090815260208181526040808320848452909152812080549161080e83610c49565b91905055505050565b6001600160a01b038116811461082c57600080fd5b50565b6000806000806080858703121561084557600080fd5b843561085081610817565b93506020850135925060408501359150606085013561086e81610817565b939692955090935050565b8381526000602084602084015260606040840152835180606085015260005b818110156108b457858101830151858201608001528201610898565b506000608082860101526080601f19601f83011685010192505050949350505050565b600080600080608085870312156108ed57600080fd5b84356108f881610817565b935060208501359250604085013561090f81610817565b9396929550929360600135925050565b6000806000806080858703121561093557600080fd5b843561094081610817565b935060208501359250604085013561095781610817565b9150606085013560ff8116811461086e57600080fd5b600080600080600080600060c0888a03121561098857600080fd5b873561099381610817565b96506020880135955060408801356109aa81610817565b9450606088013593506080880135925060a088013567ffffffffffffffff808211156109d557600080fd5b818a0191508a601f8301126109e957600080fd5b8135818111156109f857600080fd5b8b6020828501011115610a0a57600080fd5b60208301945080935050505092959891949750929550565b60008060408385031215610a3557600080fd5b8235610a4081610817565b946020939093013593505050565b600181811c90821680610a6257607f821691505b602082108103610a8257634e487b7160e01b600052602260045260246000fd5b50919050565b634e487b7160e01b600052601160045260246000fd5b60ff8181168382160290811690818114610aba57610aba610a88565b5092915050565b600060208284031215610ad357600080fd5b8151610ade81610817565b9392505050565b634e487b7160e01b600052604160045260246000fd5b601f821115610b47576000816000526020600020601f850160051c81016020861015610b245750805b601f850160051c820191505b81811015610b4357828155600101610b30565b5050505b505050565b815167ffffffffffffffff811115610b6657610b66610ae5565b610b7a81610b748454610a4e565b84610afb565b602080601f831160018114610baf5760008415610b975750858301515b600019600386901b1c1916600185901b178555610b43565b600085815260208120601f198616915b82811015610bde57888601518255948401946001909101908401610bbf565b5085821015610bfc5787850151600019600388901b60f8161c191681555b5050505050600190811b01905550565b84815283602082015260606040820152816060820152818360808301376000818301608090810191909152601f909201601f191601019392505050565b600060018201610c5b57610c5b610a88565b506001019056fea2646970667358221220f060e797d66a11752307c2c7c51f8355778f000d9d37dd2aa4fdffa569b34aef64736f6c63430008180033",
  "linkReferences": {},
  "deployedLinkReferences": {}
}